:100000000C945C000C9479000C9479000C947900A9
:100010000C9479000C9479000C9479000C9479007C
:100020000C9479000C9479000C9479000C9479006C
:100030000C9479000C9479000C9479000C9479005C
:100040000C94A0000C9479000C9479000C94790025
:100050000C9479000C9479000C9479000C9479003C
:100060000C9479000C947900000000002400270013
:100070002A0000000000250028002B0004040404CE
:100080000404040402020202020203030303030342
:10009000010204081020408001020408102001021F
:1000A00004081020000000080002010000030407FB
:1000B000000000000000000011241FBECFEFD8E0B8
:1000C000DEBFCDBF11E0A0E0B1E0E0E3F4E002C0AC
:1000D00005900D92A035B107D9F721E0A0E5B1E078
:1000E00001C01D92AF35B207E1F70E94EA000C94FF
:1000F00016020C9400003FB7F8948091550190913E
:100100005601A0915701B091580126B5A89B05C092
:100110002F3F19F00196A11DB11D3FBFBA2FA92F86
:10012000982F8827BC01CD01620F711D811D911D83
:1001300042E0660F771F881F991F4A95D1F70895EF
:100140001F920F920FB60F9211242F933F938F930C
:100150009F93AF93BF938091510190915201A091D1
:100160005301B09154013091500123E0230F2D37FA
:1001700058F50196A11DB11D2093500180935101A6
:1001800090935201A0935301B09354018091550173
:1001900090915601A0915701B09158010196A11D6F
:1001A000B11D8093550190935601A0935701B093D0
:1001B0005801BF91AF919F918F913F912F910F90D7
:1001C0000FBE0F901F90189526E8230F0296A11DD1
:1001D000B11DD2CF789484B5826084BD84B581602E
:1001E00084BD85B5826085BD85B5816085BD809102
:1001F0006E00816080936E0010928100809181007A
:100200008260809381008091810081608093810071
:10021000809180008160809380008091B100846033
:100220008093B1008091B00081608093B000809194
:100230007A00846080937A0080917A008260809353
:100240007A0080917A00816080937A0080917A00B0
:10025000806880937A001092C10010925A01109227
:1002600059018091590190915A01843091050CF403
:1002700060C0C0E0D0E010925E0110925D018091FC
:100280005D0190915E010A970CF0CAC010925C016A
:1002900010925B0140915B0150915C0100915D0106
:1002A00010915E01443051050CF08FC0CA019927AE
:1002B000FC01EC55FF4F3491FC01E057FF4F2491B6
:1002C000FC01E458FF4FE491EE2349F1D801AA0F55
:1002D000BB1FAA0FBB1FA40FB51FAA0FBB1FA050A7
:1002E000BF4F9C91332359F0333009F455C008F0C7
:1002F00048C0313009F456C0323009F457C0F0E03C
:10030000EE0FFF1FEE58FF4FA591B4918FB7F894F1
:10031000EC91911158C020952E232C938FBF809182
:100320005B0190915C01019690935C0180935B016D
:10033000B1CF9927FC01E057FF4F249184589F4F7C
:10034000FC018491882399F090E0880F991FFC01AB
:10035000E859FF4FA591B491FC01EE58FF4F8591EC
:1003600094918FB7F894EC91E22BEC938FBF80912E
:10037000590190915A01019690935A018093590125
:1003800070CF3730B1F03830D1F0343009F0B7CF1A
:10039000809180008F7D03C0809180008F77809353
:1003A0008000ADCF84B58F7784BDA9CF84B58F7D14
:1003B000FBCF8091B0008F778093B000A0CF809169
:1003C000B0008F7DF9CF2E2BA8CF0E947B004B0170
:1003D0005C0188ECC82ED12CE12CF12C0E947B0012
:1003E000681979098A099B09683E7340810591055E
:1003F000A8F3F1E0CF1AD108E108F10828EE820E47
:1004000023E0921EA11CB11CC114D104E104F1042B
:1004100029F70F5F1F4F10935E0100935D012FCFEF
:10042000209709F428CF0E94000025CFF894FFCF31
:1004300000000000000000000100000000000000BB
:1004400000000100000000000100010000000000A9
:100450000000000001000000010000000100000099
:100460000000010001000000010001000100000087
:100470000000000000000100010000000000010079
:00000001FF
