:100000000C945C000C9479000C9479000C947900A9
:100010000C9479000C9479000C9479000C9479007C
:100020000C9479000C9479000C9479000C9479006C
:100030000C9479000C9479000C9479000C9479005C
:100040000C94EC000C9479000C9479000C947900D9
:100050000C9479000C9479000C9479000C9479003C
:100060000C9479000C947900000000080002010053
:100070000003040700000000000000000000000072
:10008000250028002B0000000000240027002A0083
:10009000040404040404040402020202020203032E
:1000A0000303030301020408102040800102040836
:1000B000102001020408102011241FBECFEFD8E049
:1000C000DEBFCDBF11E0A0E0B1E0EEE4F4E002C09D
:1000D00005900D92A035B107D9F721E0A0E5B1E078
:1000E00001C01D92AF35B207E1F70E9436010C94B2
:1000F00025020C94000090E0FC01E859FF4F249188
:10010000FC01EC55FF4F3491FC01E057FF4FE491A7
:10011000EE23C9F0222339F0233001F1A8F4213075
:1001200019F1223029F1F0E0EE0FFF1FE458FF4FE4
:10013000A591B4918FB7F894EC91611126C03095D8
:100140003E233C938FBF08952730A9F02830C9F093
:10015000243049F7809180008F7D03C0809180001A
:100160008F7780938000DFCF84B58F7784BDDBCF1E
:1001700084B58F7DFBCF8091B0008F778093B000E6
:10018000D2CF8091B0008F7DF9CF3E2BDACF3FB731
:10019000F8948091550190915601A0915701B0912A
:1001A000580126B5A89B05C02F3F19F00196A11D47
:1001B000B11D3FBFBA2FA92F982F8827BC01CD01B1
:1001C000620F711D811D911D42E0660F771F881F10
:1001D000991F4A95D1F708951F920F920FB60F926B
:1001E00011242F933F938F939F93AF93BF9380914D
:1001F000510190915201A0915301B091540130915D
:10020000500123E0230F2D3758F50196A11DB11D94
:10021000209350018093510190935201A093530178
:10022000B09354018091550190915601A0915701CE
:10023000B09158010196A11DB11D80935501909375
:100240005601A0935701B0935801BF91AF919F9170
:100250008F913F912F910F900FBE0F901F90189587
:1002600026E8230F0296A11DB11DD2CF789484B544
:10027000826084BD84B5816084BD85B5826085BDA2
:1002800085B5816085BD80916E00816080936E0030
:100290001092810080918100826080938100809122
:1002A00081008160809381008091800081608093D3
:1002B00080008091B10084608093B1008091B00093
:1002C00081608093B00080917A00846080937A008E
:1002D00080917A00826080937A0080917A008160B8
:1002E00080937A0080917A00806880937A001092DF
:1002F000C10010925A0110925901809159019091B8
:100300005A018830910534F140E0E42E40E0F42EAB
:1003100010925E01D0915E01DA3008F08FC0109229
:100320005D01F4E0DF9F60011124C0915D01C430E4
:1003300008F038C0F601EC0FF11DEE0FFF1FE05082
:10034000FF4F608184E08C0F0E947B00CF5FC093E1
:100350005D01EBCF9927FC01EC55FF4F24918057AD
:100360009F4FFC018491882399F090E0880F991F9A
:10037000FC01EA57FF4FA591B491FC01E458FF4FEF
:10038000859194918FB7F894EC91E22BEC938FBF09
:100390008091590190915A01019690935A0180934E
:1003A0005901ABCF10925C0110915C011A3008F03A
:1003B00041C010925B0124E0129F60011124C091A2
:1003C0005B01C43078F4F601EC0FF11DEE0FFF1F56
:1003D000E050FF4F60818C2F0E947B00CF5FC09365
:1003E0005B01EDCF0E94C7002B013C0188EC882EF9
:1003F000912CA12CB12C0E94C700641975098609A3
:100400009709683E734081059105A8F381E0881A39
:100410009108A108B108E8EE4E0EE3E05E1E611CF3
:10042000711C81149104A104B10429F71F5F10937A
:100430005C01BACFDF5FD0935E016CCFE114F104B1
:0E04400009F466CF0E94000063CFF894FFCF4E
:10044E00000000000000000001000000000000009D
:10045E00000001000000000001000100000000008B
:10046E00000000000100000001000000010000007B
:10047E000000010001000000010001000100000069
:10048E00000000000000010001000000000001005B
:00000001FF
